{
  "contractName": "MultiPorterCrossChain",
  "abi": [
    {
      "anonymous": false,
      "inputs": [
        {
          "indexed": true,
          "internalType": "address",
          "name": "previousOwner",
          "type": "address"
        },
        {
          "indexed": true,
          "internalType": "address",
          "name": "newOwner",
          "type": "address"
        }
      ],
      "name": "OwnershipTransferred",
      "type": "event"
    },
    {
      "inputs": [
        {
          "internalType": "string",
          "name": "",
          "type": "string"
        }
      ],
      "name": "availableReceivedMessageIndexTable",
      "outputs": [
        {
          "internalType": "uint256",
          "name": "",
          "type": "uint256"
        }
      ],
      "stateMutability": "view",
      "type": "function",
      "constant": true
    },
    {
      "inputs": [
        {
          "internalType": "address[]",
          "name": "_porters",
          "type": "address[]"
        },
        {
          "internalType": "uint256",
          "name": "_requirement",
          "type": "uint256"
        }
      ],
      "name": "changePortersAndRequirement",
      "outputs": [],
      "stateMutability": "nonpayable",
      "type": "function"
    },
    {
      "inputs": [
        {
          "internalType": "string",
          "name": "_chainName",
          "type": "string"
        },
        {
          "internalType": "uint256",
          "name": "_id",
          "type": "uint256"
        }
      ],
      "name": "executeMessage",
      "outputs": [],
      "stateMutability": "nonpayable",
      "type": "function"
    },
    {
      "inputs": [
        {
          "internalType": "string[]",
          "name": "_chainNames",
          "type": "string[]"
        }
      ],
      "name": "getExecutableMessages",
      "outputs": [
        {
          "components": [
            {
              "internalType": "uint256",
              "name": "id",
              "type": "uint256"
            },
            {
              "internalType": "string",
              "name": "fromChain",
              "type": "string"
            },
            {
              "internalType": "string",
              "name": "sender",
              "type": "string"
            },
            {
              "internalType": "address",
              "name": "contractAddress",
              "type": "address"
            },
            {
              "internalType": "string",
              "name": "action",
              "type": "string"
            },
            {
              "internalType": "bytes",
              "name": "data",
              "type": "bytes"
            },
            {
              "internalType": "bool",
              "name": "executed",
              "type": "bool"
            },
            {
              "internalType": "uint256",
              "name": "errorCode",
              "type": "uint256"
            }
          ],
          "internalType": "struct ReceivedMessage[]",
          "name": "",
          "type": "tuple[]"
        }
      ],
      "stateMutability": "view",
      "type": "function",
      "constant": true
    },
    {
      "inputs": [
        {
          "internalType": "string",
          "name": "_chainName",
          "type": "string"
        }
      ],
      "name": "getMsgPortingTask",
      "outputs": [
        {
          "internalType": "uint256",
          "name": "",
          "type": "uint256"
        }
      ],
      "stateMutability": "view",
      "type": "function",
      "constant": true
    },
    {
      "inputs": [
        {
          "internalType": "string",
          "name": "_chainName",
          "type": "string"
        },
        {
          "internalType": "uint256",
          "name": "_id",
          "type": "uint256"
        }
      ],
      "name": "getReceivedMessage",
      "outputs": [
        {
          "components": [
            {
              "internalType": "uint256",
              "name": "id",
              "type": "uint256"
            },
            {
              "internalType": "string",
              "name": "fromChain",
              "type": "string"
            },
            {
              "internalType": "string",
              "name": "sender",
              "type": "string"
            },
            {
              "internalType": "address",
              "name": "contractAddress",
              "type": "address"
            },
            {
              "internalType": "string",
              "name": "action",
              "type": "string"
            },
            {
              "internalType": "bytes",
              "name": "data",
              "type": "bytes"
            },
            {
              "internalType": "bool",
              "name": "executed",
              "type": "bool"
            },
            {
              "internalType": "uint256",
              "name": "errorCode",
              "type": "uint256"
            }
          ],
          "internalType": "struct ReceivedMessage",
          "name": "",
          "type": "tuple"
        }
      ],
      "stateMutability": "view",
      "type": "function",
      "constant": true
    },
    {
      "inputs": [
        {
          "internalType": "string",
          "name": "_chainName",
          "type": "string"
        }
      ],
      "name": "getReceivedMessageNumber",
      "outputs": [
        {
          "internalType": "uint256",
          "name": "",
          "type": "uint256"
        }
      ],
      "stateMutability": "view",
      "type": "function",
      "constant": true
    },
    {
      "inputs": [
        {
          "internalType": "string",
          "name": "_chainName",
          "type": "string"
        },
        {
          "internalType": "uint256",
          "name": "_id",
          "type": "uint256"
        }
      ],
      "name": "getSentMessage",
      "outputs": [
        {
          "components": [
            {
              "internalType": "uint256",
              "name": "id",
              "type": "uint256"
            },
            {
              "internalType": "string",
              "name": "fromChain",
              "type": "string"
            },
            {
              "internalType": "string",
              "name": "toChain",
              "type": "string"
            },
            {
              "internalType": "address",
              "name": "sender",
              "type": "address"
            },
            {
              "components": [
                {
                  "internalType": "string",
                  "name": "contractAddress",
                  "type": "string"
                },
                {
                  "internalType": "string",
                  "name": "action",
                  "type": "string"
                },
                {
                  "components": [
                    {
                      "internalType": "bytes",
                      "name": "arguments",
                      "type": "bytes"
                    }
                  ],
                  "internalType": "struct Data",
                  "name": "data",
                  "type": "tuple"
                }
              ],
              "internalType": "struct Content",
              "name": "content",
              "type": "tuple"
            }
          ],
          "internalType": "struct SentMessage",
          "name": "",
          "type": "tuple"
        }
      ],
      "stateMutability": "view",
      "type": "function",
      "constant": true
    },
    {
      "inputs": [
        {
          "internalType": "string",
          "name": "_chainName",
          "type": "string"
        }
      ],
      "name": "getSentMessageNumber",
      "outputs": [
        {
          "internalType": "uint256",
          "name": "",
          "type": "uint256"
        }
      ],
      "stateMutability": "view",
      "type": "function",
      "constant": true
    },
    {
      "inputs": [
        {
          "internalType": "address",
          "name": "",
          "type": "address"
        },
        {
          "internalType": "string",
          "name": "",
          "type": "string"
        }
      ],
      "name": "interfaces",
      "outputs": [
        {
          "internalType": "string",
          "name": "",
          "type": "string"
        }
      ],
      "stateMutability": "view",
      "type": "function",
      "constant": true
    },
    {
      "inputs": [
        {
          "internalType": "address",
          "name": "",
          "type": "address"
        }
      ],
      "name": "isPorter",
      "outputs": [
        {
          "internalType": "bool",
          "name": "",
          "type": "bool"
        }
      ],
      "stateMutability": "view",
      "type": "function",
      "constant": true
    },
    {
      "inputs": [],
      "name": "messageSender",
      "outputs": [
        {
          "internalType": "address",
          "name": "",
          "type": "address"
        }
      ],
      "stateMutability": "view",
      "type": "function",
      "constant": true
    },
    {
      "inputs": [],
      "name": "owner",
      "outputs": [
        {
          "internalType": "address",
          "name": "",
          "type": "address"
        }
      ],
      "stateMutability": "view",
      "type": "function",
      "constant": true
    },
    {
      "inputs": [
        {
          "internalType": "uint256",
          "name": "",
          "type": "uint256"
        }
      ],
      "name": "porters",
      "outputs": [
        {
          "internalType": "address",
          "name": "",
          "type": "address"
        }
      ],
      "stateMutability": "view",
      "type": "function",
      "constant": true
    },
    {
      "inputs": [
        {
          "internalType": "string",
          "name": "_funcName",
          "type": "string"
        },
        {
          "internalType": "string",
          "name": "_interface",
          "type": "string"
        }
      ],
      "name": "registerInterface",
      "outputs": [],
      "stateMutability": "nonpayable",
      "type": "function"
    },
    {
      "inputs": [
        {
          "internalType": "string",
          "name": "_funcName",
          "type": "string"
        },
        {
          "internalType": "string",
          "name": "_abiString",
          "type": "string"
        },
        {
          "internalType": "string",
          "name": "_paramName",
          "type": "string"
        },
        {
          "internalType": "string",
          "name": "_paramType",
          "type": "string"
        }
      ],
      "name": "registerTarget",
      "outputs": [],
      "stateMutability": "nonpayable",
      "type": "function"
    },
    {
      "inputs": [],
      "name": "renounceOwnership",
      "outputs": [],
      "stateMutability": "nonpayable",
      "type": "function"
    },
    {
      "inputs": [],
      "name": "required",
      "outputs": [
        {
          "internalType": "uint256",
          "name": "",
          "type": "uint256"
        }
      ],
      "stateMutability": "view",
      "type": "function",
      "constant": true
    },
    {
      "inputs": [
        {
          "internalType": "string",
          "name": "_toChain",
          "type": "string"
        },
        {
          "internalType": "string",
          "name": "_contractAddress",
          "type": "string"
        },
        {
          "internalType": "string",
          "name": "_methodName",
          "type": "string"
        },
        {
          "internalType": "bytes",
          "name": "_data",
          "type": "bytes"
        }
      ],
      "name": "sendMessage",
      "outputs": [],
      "stateMutability": "nonpayable",
      "type": "function"
    },
    {
      "inputs": [
        {
          "internalType": "address",
          "name": "_address",
          "type": "address"
        }
      ],
      "name": "setTokenContract",
      "outputs": [],
      "stateMutability": "nonpayable",
      "type": "function"
    },
    {
      "inputs": [
        {
          "internalType": "address",
          "name": "",
          "type": "address"
        },
        {
          "internalType": "string",
          "name": "",
          "type": "string"
        }
      ],
      "name": "targets",
      "outputs": [
        {
          "internalType": "string",
          "name": "abiString",
          "type": "string"
        },
        {
          "internalType": "string",
          "name": "parameterNamesString",
          "type": "string"
        },
        {
          "internalType": "string",
          "name": "parametertypesString",
          "type": "string"
        }
      ],
      "stateMutability": "view",
      "type": "function",
      "constant": true
    },
    {
      "inputs": [],
      "name": "tokenContract",
      "outputs": [
        {
          "internalType": "contract DanteToken",
          "name": "",
          "type": "address"
        }
      ],
      "stateMutability": "view",
      "type": "function",
      "constant": true
    },
    {
      "inputs": [
        {
          "internalType": "address",
          "name": "newOwner",
          "type": "address"
        }
      ],
      "name": "transferOwnership",
      "outputs": [],
      "stateMutability": "nonpayable",
      "type": "function"
    },
    {
      "inputs": [],
      "name": "verifyContract",
      "outputs": [
        {
          "internalType": "contract MessageVerify",
          "name": "",
          "type": "address"
        }
      ],
      "stateMutability": "view",
      "type": "function",
      "constant": true
    },
    {
      "inputs": [
        {
          "internalType": "address",
          "name": "_address",
          "type": "address"
        }
      ],
      "name": "setVerifyContract",
      "outputs": [],
      "stateMutability": "nonpayable",
      "type": "function"
    },
    {
      "inputs": [
        {
          "internalType": "uint256",
          "name": "_id",
          "type": "uint256"
        },
        {
          "internalType": "string",
          "name": "_fromChain",
          "type": "string"
        },
        {
          "internalType": "uint256",
          "name": "_errorCode",
          "type": "uint256"
        }
      ],
      "name": "abandonMessage",
      "outputs": [],
      "stateMutability": "nonpayable",
      "type": "function"
    },
    {
      "inputs": [
        {
          "internalType": "uint256",
          "name": "_id",
          "type": "uint256"
        },
        {
          "internalType": "string",
          "name": "_fromChain",
          "type": "string"
        },
        {
          "internalType": "string",
          "name": "_sender",
          "type": "string"
        },
        {
          "internalType": "address",
          "name": "_to",
          "type": "address"
        },
        {
          "internalType": "string",
          "name": "_action",
          "type": "string"
        },
        {
          "internalType": "bytes",
          "name": "_data",
          "type": "bytes"
        }
      ],
      "name": "receiveMessage",
      "outputs": [],
      "stateMutability": "nonpayable",
      "type": "function"
    },
    {
      "inputs": [
        {
          "internalType": "string",
          "name": "_toChain",
          "type": "string"
        }
      ],
      "name": "clearCrossChainMessage",
      "outputs": [],
      "stateMutability": "nonpayable",
      "type": "function"
    }
  ],
  "bytecode": "0x60806040523480156200001157600080fd5b5062000032620000266200003860201b60201c565b6200004060201b60201c565b62000104565b600033905090565b60008060009054906101000a900473ffffffffffffffffffffffffffffffffffffffff169050816000806101000a81548173ffffffffffffffffffffffffffffffffffffffff021916908373ffffffffffffffffffffffffffffffffffffffff1602179055508173ffffffffffffffffffffffffffffffffffffffff168173ffffffffffffffffffffffffffffffffffffffff167f8be0079c531659141344cd1fd0a4f28419497f9722a3daafe3b4186f6b6457e060405160405180910390a35050565b6153c580620001146000396000f3fe608060405234801561001057600080fd5b50600436106101c45760003560e01c8063909b2647116100f9578063c383221411610097578063dc8452cd11610071578063dc8452cd14610515578063debcd46e14610533578063f2fde38b14610563578063fe2c9c191461057f576101c4565b8063c3832214146104ab578063ce700e80146104db578063d67bdd25146104f7576101c4565b8063a0d948ea116100d3578063a0d948ea14610425578063a6806f6514610443578063b244244b1461045f578063bbcd5bbe1461048f576101c4565b8063909b2647146103a95780639da9ef33146103d95780639ebc33e4146103f5576101c4565b80634c2be98f11610166578063729518fc11610140578063729518fc1461030d5780637d3fd379146103295780638da5cb5b1461035b5780638e3db31314610379576101c4565b80634c2be98f146102b557806355a373d6146102e5578063715018a614610303576101c4565b8063320befc8116101a2578063320befc814610245578063358e47f5146102615780634380aa3a1461027d5780634540658414610299576101c4565b8063086615c2146101c95780631585f9d0146101f9578063285fcbdb14610229575b600080fd5b6101e360048036038101906101de9190613377565b6105af565b6040516101f091906133dd565b60405180910390f35b610213600480360381019061020e9190613597565b6105e2565b604051610220919061367b565b60405180910390f35b610243600480360381019061023e919061371f565b6106a5565b005b61025f600480360381019061025a9190613377565b610bab565b005b61027b6004803603810190610276919061382f565b610c57565b005b610297600480360381019061029291906138a3565b610f51565b005b6102b360048036038101906102ae9190613924565b610fca565b005b6102cf60048036038101906102ca9190613a0d565b61117e565b6040516102dc9190613a49565b60405180910390f35b6102ed6111bd565b6040516102fa9190613ac3565b60405180910390f35b61030b6111e3565b005b61032760048036038101906103229190613ade565b61126b565b005b610343600480360381019061033e9190613597565b6114ce565b60405161035293929190613bc7565b60405180910390f35b6103636116b3565b6040516103709190613a49565b60405180910390f35b610393600480360381019061038e9190613c13565b6116dc565b6040516103a09190613e3c565b60405180910390f35b6103c360048036038101906103be9190613eb4565b611aa0565b6040516103d091906140a3565b60405180910390f35b6103f360048036038101906103ee919061411b565b611fd6565b005b61040f600480360381019061040a919061417b565b6122c0565b60405161041c91906141b7565b60405180910390f35b61042d6122e0565b60405161043a91906141f3565b60405180910390f35b61045d6004803603810190610458919061417b565b612306565b005b6104796004803603810190610474919061420e565b6123c6565b60405161048691906133dd565b60405180910390f35b6104a960048036038101906104a4919061417b565b6123f4565b005b6104c560048036038101906104c09190613c13565b6124b4565b6040516104d2919061431c565b60405180910390f35b6104f560048036038101906104f09190613c13565b6127e4565b005b6104ff612932565b60405161050c9190613a49565b60405180910390f35b61051d612958565b60405161052a91906133dd565b60405180910390f35b61054d60048036038101906105489190613377565b61295e565b60405161055a91906133dd565b60405180910390f35b61057d6004803603810190610578919061417b565b612991565b005b61059960048036038101906105949190613377565b612a89565b6040516105a691906133dd565b60405180910390f35b600080600584846040516105c492919061436e565b90815260200160405180910390209050808054905091505092915050565b600260205281600052604060002081805160208101820180518482526020830160208501208183528095505050505050600091509150508054610624906143b6565b80601f0160208091040260200160405190810160405280929190818152602001828054610650906143b6565b801561069d5780601f106106725761010080835404028352916020019161069d565b820191906000526020600020905b81548152906001019060200180831161068057829003601f168201915b505050505081565b600960003373ffffffffffffffffffffffffffffffffffffffff1673ffffffffffffffffffffffffffffffffffffffff16815260200190815260200160002060009054906101000a900460ff16610731576040517f08c379a00000000000000000000000000000000000000000000000000000000081526004016107289061445a565b60405180910390fd5b6000600b8a8a60405161074592919061436e565b908152602001604051809103902090506001818054905061076691906144a9565b8b11156107a8576040517f08c379a000000000000000000000000000000000000000000000000000000000815260040161079f90614571565b60405180910390fd5b6000600182805490506107bb91906144a9565b8c14156107e4578160018160018154018082558091505003906000526020600020019050610810565b8160018d6107f29190614591565b81548110610803576108026145c5565b5b9060005260206000200190505b60005b81805490508110156108e5573373ffffffffffffffffffffffffffffffffffffffff16828281548110610849576108486145c5565b5b906000526020600020906009020160080160009054906101000a900473ffffffffffffffffffffffffffffffffffffffff1673ffffffffffffffffffffffffffffffffffffffff1614156108d2576040517f08c379a00000000000000000000000000000000000000000000000000000000081526004016108c990614666565b60405180910390fd5b80806108dd90614686565b915050610813565b5060008160018160018154018082558091505003906000526020600020906009020190508c81600001600001819055508b8b82600001600101919061092b929190612dff565b508989826000016002019190610942929190612dff565b50878160000160030160006101000a81548173ffffffffffffffffffffffffffffffffffffffff021916908373ffffffffffffffffffffffffffffffffffffffff160217905550868682600001600401919061099f929190612dff565b5084848260000160050191906109b6929190612e85565b50338160080160006101000a81548173ffffffffffffffffffffffffffffffffffffffff021916908373ffffffffffffffffffffffffffffffffffffffff16021790555060085482805490501415610b9c57600073ffffffffffffffffffffffffffffffffffffffff16600c60009054906101000a900473ffffffffffffffffffffffffffffffffffffffff1673ffffffffffffffffffffffffffffffffffffffff161415610a9a576040517f08c379a0000000000000000000000000000000000000000000000000000000008152600401610a919061471b565b60405180910390fd5b6000600c60009054906101000a900473ffffffffffffffffffffffffffffffffffffffff1673ffffffffffffffffffffffffffffffffffffffff1663faac4c6c8460646040518363ffffffff1660e01b8152600401610afa929190614b40565b6000604051808303816000875af1158015610b19573d6000803e3d6000fd5b505050506040513d6000823e3d601f19601f82011682018060405250810190610b429190614f68565b9050600081511115610b9a57600081600081518110610b6457610b636145c5565b5b6020026020010151600001519050610b98816000015182602001518360400151846060015185608001518660a00151612b1b565b505b505b50505050505050505050505050565b610bb3612c6c565b73ffffffffffffffffffffffffffffffffffffffff16610bd16116b3565b73ffffffffffffffffffffffffffffffffffffffff1614610c27576040517f08c379a0000000000000000000000000000000000000000000000000000000008152600401610c1e90614ffd565b60405180910390fd5b60058282604051610c3992919061436e565b90815260200160405180910390206000610c539190612f0b565b5050565b600960003373ffffffffffffffffffffffffffffffffffffffff1673ffffffffffffffffffffffffffffffffffffffff16815260200190815260200160002060009054906101000a900460ff16610ce3576040517f08c379a0000000000000000000000000000000000000000000000000000000008152600401610cda9061445a565b60405180910390fd5b6000600b8484604051610cf792919061436e565b9081526020016040518091039020905060018180549050610d1891906144a9565b851115610d5a576040517f08c379a0000000000000000000000000000000000000000000000000000000008152600401610d5190614571565b60405180910390fd5b600060018280549050610d6d91906144a9565b861415610d96578160018160018154018082558091505003906000526020600020019050610dc2565b81600187610da49190614591565b81548110610db557610db46145c5565b5b9060005260206000200190505b60005b8180549050811015610e97573373ffffffffffffffffffffffffffffffffffffffff16828281548110610dfb57610dfa6145c5565b5b906000526020600020906009020160080160009054906101000a900473ffffffffffffffffffffffffffffffffffffffff1673ffffffffffffffffffffffffffffffffffffffff161415610e84576040517f08c379a0000000000000000000000000000000000000000000000000000000008152600401610e7b90614666565b60405180910390fd5b8080610e8f90614686565b915050610dc5565b5060008160018160018154018082558091505003906000526020600020906009020190508681600001600001819055508585826000016001019190610edd929190612dff565b50838160000160070181905550338160080160006101000a81548173ffffffffffffffffffffffffffffffffffffffff021916908373ffffffffffffffffffffffffffffffffffffffff16021790555060085482805490501415610f4857610f4787878787612c74565b5b50505050505050565b6000600260003373ffffffffffffffffffffffffffffffffffffffff1673ffffffffffffffffffffffffffffffffffffffff16815260200190815260200160002090508282828787604051610fa792919061436e565b90815260200160405180910390209190610fc2929190612dff565b505050505050565b6000600160003373ffffffffffffffffffffffffffffffffffffffff1673ffffffffffffffffffffffffffffffffffffffff16815260200190815260200160002090506000604051806060016040528089898080601f016020809104026020016040519081016040528093929190818152602001838380828437600081840152601f19601f82011690508083019250505050505050815260200187878080601f016020809104026020016040519081016040528093929190818152602001838380828437600081840152601f19601f82011690508083019250505050505050815260200185858080601f016020809104026020016040519081016040528093929190818152602001838380828437600081840152601f19601f82011690508083019250505050505050815250905080828b8b60405161110a92919061436e565b90815260200160405180910390206000820151816000019080519060200190611134929190612f2f565b506020820151816001019080519060200190611151929190612f2f565b50604082015181600201908051906020019061116e929190612f2f565b5090505050505050505050505050565b600a818154811061118e57600080fd5b906000526020600020016000915054906101000a900473ffffffffffffffffffffffffffffffffffffffff1681565b600360009054906101000a900473ffffffffffffffffffffffffffffffffffffffff1681565b6111eb612c6c565b73ffffffffffffffffffffffffffffffffffffffff166112096116b3565b73ffffffffffffffffffffffffffffffffffffffff161461125f576040517f08c379a000000000000000000000000000000000000000000000000000000000815260040161125690614ffd565b60405180910390fd5b6112696000612d3b565b565b60006005898960405161127f92919061436e565b90815260200160405180910390209050600081600181600181540180825580915050039060005260206000209060070201905081805490508160000181905550604051806060016040528089898080601f016020809104026020016040519081016040528093929190818152602001838380828437600081840152601f19601f82011690508083019250505050505050815260200187878080601f016020809104026020016040519081016040528093929190818152602001838380828437600081840152601f19601f820116905080830192505050505050508152602001604051806020016040528087878080601f016020809104026020016040519081016040528093929190818152602001838380828437600081840152601f19601f820116905080830192505050505050508152508152508160040160008201518160000190805190602001906113d4929190612f2f565b5060208201518160010190805190602001906113f1929190612f2f565b506040820151816002016000820151816000019080519060200190611417929190612fb5565b5050509050506040518060400160405280600981526020017f4156414c414e434845000000000000000000000000000000000000000000000081525081600101908051906020019061146a929190612f2f565b50898982600201919061147e929190612dff565b50338160030160006101000a81548173ffffffffffffffffffffffffffffffffffffffff021916908373ffffffffffffffffffffffffffffffffffffffff16021790555050505050505050505050565b60016020528160005260406000208180516020810182018051848252602083016020850120818352809550505050505060009150915050806000018054611514906143b6565b80601f0160208091040260200160405190810160405280929190818152602001828054611540906143b6565b801561158d5780601f106115625761010080835404028352916020019161158d565b820191906000526020600020905b81548152906001019060200180831161157057829003601f168201915b5050505050908060010180546115a2906143b6565b80601f01602080910402602001604051908101604052809291908181526020018280546115ce906143b6565b801561161b5780601f106115f05761010080835404028352916020019161161b565b820191906000526020600020905b8154815290600101906020018083116115fe57829003601f168201915b505050505090806002018054611630906143b6565b80601f016020809104026020016040519081016040528092919081815260200182805461165c906143b6565b80156116a95780601f1061167e576101008083540402835291602001916116a9565b820191906000526020600020905b81548152906001019060200180831161168c57829003601f168201915b5050505050905083565b60008060009054906101000a900473ffffffffffffffffffffffffffffffffffffffff16905090565b6116e461303b565b6000600585856040516116f892919061436e565b9081526020016040518091039020905080838154811061171b5761171a6145c5565b5b90600052602060002090600702016040518060a00160405290816000820154815260200160018201805461174e906143b6565b80601f016020809104026020016040519081016040528092919081815260200182805461177a906143b6565b80156117c75780601f1061179c576101008083540402835291602001916117c7565b820191906000526020600020905b8154815290600101906020018083116117aa57829003601f168201915b505050505081526020016002820180546117e0906143b6565b80601f016020809104026020016040519081016040528092919081815260200182805461180c906143b6565b80156118595780601f1061182e57610100808354040283529160200191611859565b820191906000526020600020905b81548152906001019060200180831161183c57829003601f168201915b505050505081526020016003820160009054906101000a900473ffffffffffffffffffffffffffffffffffffffff1673ffffffffffffffffffffffffffffffffffffffff1673ffffffffffffffffffffffffffffffffffffffff168152602001600482016040518060600160405290816000820180546118d8906143b6565b80601f0160208091040260200160405190810160405280929190818152602001828054611904906143b6565b80156119515780601f1061192657610100808354040283529160200191611951565b820191906000526020600020905b81548152906001019060200180831161193457829003601f168201915b5050505050815260200160018201805461196a906143b6565b80601f0160208091040260200160405190810160405280929190818152602001828054611996906143b6565b80156119e35780601f106119b8576101008083540402835291602001916119e3565b820191906000526020600020905b8154815290600101906020018083116119c657829003601f168201915b5050505050815260200160028201604051806020016040529081600082018054611a0c906143b6565b80601f0160208091040260200160405190810160405280929190818152602001828054611a38906143b6565b8015611a855780601f10611a5a57610100808354040283529160200191611a85565b820191906000526020600020905b815481529060010190602001808311611a6857829003601f168201915b50505050508152505081525050815250509150509392505050565b60606000805b84849050811015611b8c5760006006868684818110611ac857611ac76145c5565b5b9050602002810190611ada919061502c565b604051611ae892919061436e565b9081526020016040518091039020905060005b8180549050811015611b77576000828281548110611b1c57611b1b6145c5565b5b9060005260206000209060080201905060008160070154148015611b4f57508060060160009054906101000a900460ff16155b15611b63578480611b5f90614686565b9550505b508080611b6f90614686565b915050611afb565b50508080611b8490614686565b915050611aa6565b5060008167ffffffffffffffff811115611ba957611ba861346c565b5b604051908082528060200260200182016040528015611be257816020015b611bcf613086565b815260200190600190039081611bc75790505b5090506000915060005b85859050811015611fca5760006006878784818110611c0e57611c0d6145c5565b5b9050602002810190611c20919061502c565b604051611c2e92919061436e565b9081526020016040518091039020905060005b8180549050811015611fb5576000828281548110611c6257611c616145c5565b5b9060005260206000209060080201905060008160070154148015611c9557508060060160009054906101000a900460ff16155b15611fa157806040518061010001604052908160008201548152602001600182018054611cc1906143b6565b80601f0160208091040260200160405190810160405280929190818152602001828054611ced906143b6565b8015611d3a5780601f10611d0f57610100808354040283529160200191611d3a565b820191906000526020600020905b815481529060010190602001808311611d1d57829003601f168201915b50505050508152602001600282018054611d53906143b6565b80601f0160208091040260200160405190810160405280929190818152602001828054611d7f906143b6565b8015611dcc5780601f10611da157610100808354040283529160200191611dcc565b820191906000526020600020905b815481529060010190602001808311611daf57829003601f168201915b505050505081526020016003820160009054906101000a900473ffffffffffffffffffffffffffffffffffffffff1673ffffffffffffffffffffffffffffffffffffffff1673ffffffffffffffffffffffffffffffffffffffff168152602001600482018054611e3b906143b6565b80601f0160208091040260200160405190810160405280929190818152602001828054611e67906143b6565b8015611eb45780601f10611e8957610100808354040283529160200191611eb4565b820191906000526020600020905b815481529060010190602001808311611e9757829003601f168201915b50505050508152602001600582018054611ecd906143b6565b80601f0160208091040260200160405190810160405280929190818152602001828054611ef9906143b6565b8015611f465780601f10611f1b57610100808354040283529160200191611f46565b820191906000526020600020905b815481529060010190602001808311611f2957829003601f168201915b505050505081526020016006820160009054906101000a900460ff16151515158152602001600782015481525050858781518110611f8757611f866145c5565b5b60200260200101819052508580611f9d90614686565b9650505b508080611fad90614686565b915050611c41565b50508080611fc290614686565b915050611bec565b50809250505092915050565b611fde612c6c565b73ffffffffffffffffffffffffffffffffffffffff16611ffc6116b3565b73ffffffffffffffffffffffffffffffffffffffff1614612052576040517f08c379a000000000000000000000000000000000000000000000000000000000815260040161204990614ffd565b60405180910390fd5b60005b600a8054905081101561210b57600060096000600a848154811061207c5761207b6145c5565b5b9060005260206000200160009054906101000a900473ffffffffffffffffffffffffffffffffffffffff1673ffffffffffffffffffffffffffffffffffffffff1673ffffffffffffffffffffffffffffffffffffffff16815260200190815260200160002060006101000a81548160ff021916908315150217905550808061210390614686565b915050612055565b5082829050600a8054905011156121a057600083839050600a805490506121329190614591565b905060005b8181101561219957600a8054806121515761215061508f565b5b6001900381819060005260206000200160006101000a81549073ffffffffffffffffffffffffffffffffffffffff02191690559055808061219190614686565b915050612137565b5050612201565b6000600a80549050848490506121b69190614591565b905060005b818110156121fe57600a600181600181540180825580915050039060005260206000200160009054906101000a90505080806121f690614686565b9150506121bb565b50505b60005b838390508110156122a157600160096000868685818110612228576122276145c5565b5b905060200201602081019061223d919061417b565b73ffffffffffffffffffffffffffffffffffffffff1673ffffffffffffffffffffffffffffffffffffffff16815260200190815260200160002060006101000a81548160ff021916908315150217905550808061229990614686565b915050612204565b508282600a91906122b39291906130e3565b5080600881905550505050565b60096020528060005260406000206000915054906101000a900460ff1681565b600c60009054906101000a900473ffffffffffffffffffffffffffffffffffffffff1681565b61230e612c6c565b73ffffffffffffffffffffffffffffffffffffffff1661232c6116b3565b73ffffffffffffffffffffffffffffffffffffffff1614612382576040517f08c379a000000000000000000000000000000000000000000000000000000000815260040161237990614ffd565b60405180910390fd5b80600c60006101000a81548173ffffffffffffffffffffffffffffffffffffffff021916908373ffffffffffffffffffffffffffffffffffffffff16021790555050565b6007818051602081018201805184825260208301602085012081835280955050505050506000915090505481565b6123fc612c6c565b73ffffffffffffffffffffffffffffffffffffffff1661241a6116b3565b73ffffffffffffffffffffffffffffffffffffffff1614612470576040517f08c379a000000000000000000000000000000000000000000000000000000000815260040161246790614ffd565b60405180910390fd5b80600360006101000a81548173ffffffffffffffffffffffffffffffffffffffff021916908373ffffffffffffffffffffffffffffffffffffffff16021790555050565b6124bc613086565b6000600685856040516124d092919061436e565b908152602001604051809103902090508083815481106124f3576124f26145c5565b5b90600052602060002090600802016040518061010001604052908160008201548152602001600182018054612527906143b6565b80601f0160208091040260200160405190810160405280929190818152602001828054612553906143b6565b80156125a05780601f10612575576101008083540402835291602001916125a0565b820191906000526020600020905b81548152906001019060200180831161258357829003601f168201915b505050505081526020016002820180546125b9906143b6565b80601f01602080910402602001604051908101604052809291908181526020018280546125e5906143b6565b80156126325780601f1061260757610100808354040283529160200191612632565b820191906000526020600020905b81548152906001019060200180831161261557829003601f168201915b505050505081526020016003820160009054906101000a900473ffffffffffffffffffffffffffffffffffffffff1673ffffffffffffffffffffffffffffffffffffffff1673ffffffffffffffffffffffffffffffffffffffff1681526020016004820180546126a1906143b6565b80601f01602080910402602001604051908101604052809291908181526020018280546126cd906143b6565b801561271a5780601f106126ef5761010080835404028352916020019161271a565b820191906000526020600020905b8154815290600101906020018083116126fd57829003601f168201915b50505050508152602001600582018054612733906143b6565b80601f016020809104026020016040519081016040528092919081815260200182805461275f906143b6565b80156127ac5780601f10612781576101008083540402835291602001916127ac565b820191906000526020600020905b81548152906001019060200180831161278f57829003601f168201915b505050505081526020016006820160009054906101000a900460ff161515151581526020016007820154815250509150509392505050565b6000600684846040516127f892919061436e565b908152602001604051809103902090506000816001846128189190614591565b81548110612829576128286145c5565b5b9060005260206000209060080201905060018160060160006101000a81548160ff02191690831515021790555060008160030160009054906101000a900473ffffffffffffffffffffffffffffffffffffffff1673ffffffffffffffffffffffffffffffffffffffff16826005016040516128a49190615148565b6000604051808303816000865af19150503d80600081146128e1576040519150601f19603f3d011682016040523d82523d6000602084013e6128e6565b606091505b505090508061292a576040517f08c379a0000000000000000000000000000000000000000000000000000000008152600401612921906151ab565b60405180910390fd5b505050505050565b600460009054906101000a900473ffffffffffffffffffffffffffffffffffffffff1681565b60085481565b6000806006848460405161297392919061436e565b90815260200160405180910390209050808054905091505092915050565b612999612c6c565b73ffffffffffffffffffffffffffffffffffffffff166129b76116b3565b73ffffffffffffffffffffffffffffffffffffffff1614612a0d576040517f08c379a0000000000000000000000000000000000000000000000000000000008152600401612a0490614ffd565b60405180910390fd5b600073ffffffffffffffffffffffffffffffffffffffff168173ffffffffffffffffffffffffffffffffffffffff161415612a7d576040517f08c379a0000000000000000000000000000000000000000000000000000000008152600401612a749061523d565b60405180910390fd5b612a8681612d3b565b50565b600060013073ffffffffffffffffffffffffffffffffffffffff1663debcd46e85856040518363ffffffff1660e01b8152600401612ac892919061528a565b602060405180830381865afa158015612ae5573d6000803e3d6000fd5b505050506040513d601f19601f82011682018060405250810190612b0991906152ae565b612b1391906144a9565b905092915050565b6000600686604051612b2d919061530c565b9081526020016040518091039020905060018180549050612b4e91906144a9565b8714612b8f576040517f08c379a0000000000000000000000000000000000000000000000000000000008152600401612b869061536f565b60405180910390fd5b600081600181600181540180825580915050039060005260206000209060080201905087816000018190555086816001019080519060200190612bd3929190612f2f565b5085816002019080519060200190612bec929190612f2f565b50848160030160006101000a81548173ffffffffffffffffffffffffffffffffffffffff021916908373ffffffffffffffffffffffffffffffffffffffff16021790555083816004019080519060200190612c48929190612f2f565b5082816005019080519060200190612c61929190612fb5565b505050505050505050565b600033905090565b600060068484604051612c8892919061436e565b9081526020016040518091039020905060018180549050612ca991906144a9565b8514612cea576040517f08c379a0000000000000000000000000000000000000000000000000000000008152600401612ce19061536f565b60405180910390fd5b60008160018160018154018082558091505003906000526020600020906008020190508581600001819055508484826001019190612d29929190612dff565b50828160070181905550505050505050565b60008060009054906101000a900473ffffffffffffffffffffffffffffffffffffffff169050816000806101000a81548173ffffffffffffffffffffffffffffffffffffffff021916908373ffffffffffffffffffffffffffffffffffffffff1602179055508173ffffffffffffffffffffffffffffffffffffffff168173ffffffffffffffffffffffffffffffffffffffff167f8be0079c531659141344cd1fd0a4f28419497f9722a3daafe3b4186f6b6457e060405160405180910390a35050565b828054612e0b906143b6565b90600052602060002090601f016020900481019282612e2d5760008555612e74565b82601f10612e4657803560ff1916838001178555612e74565b82800160010185558215612e74579182015b82811115612e73578235825591602001919060010190612e58565b5b509050612e819190613183565b5090565b828054612e91906143b6565b90600052602060002090601f016020900481019282612eb35760008555612efa565b82601f10612ecc57803560ff1916838001178555612efa565b82800160010185558215612efa579182015b82811115612ef9578235825591602001919060010190612ede565b5b509050612f079190613183565b5090565b5080546000825560070290600052602060002090810190612f2c91906131a0565b50565b828054612f3b906143b6565b90600052602060002090601f016020900481019282612f5d5760008555612fa4565b82601f10612f7657805160ff1916838001178555612fa4565b82800160010185558215612fa4579182015b82811115612fa3578251825591602001919060010190612f88565b5b509050612fb19190613183565b5090565b828054612fc1906143b6565b90600052602060002090601f016020900481019282612fe3576000855561302a565b82601f10612ffc57805160ff191683800117855561302a565b8280016001018555821561302a579182015b8281111561302957825182559160200191906001019061300e565b5b5090506130379190613183565b5090565b6040518060a00160405280600081526020016060815260200160608152602001600073ffffffffffffffffffffffffffffffffffffffff168152602001613080613244565b81525090565b604051806101000160405280600081526020016060815260200160608152602001600073ffffffffffffffffffffffffffffffffffffffff1681526020016060815260200160608152602001600015158152602001600081525090565b828054828255906000526020600020908101928215613172579160200282015b8281111561317157823573ffffffffffffffffffffffffffffffffffffffff168260006101000a81548173ffffffffffffffffffffffffffffffffffffffff021916908373ffffffffffffffffffffffffffffffffffffffff16021790555091602001919060010190613103565b5b50905061317f9190613183565b5090565b5b8082111561319c576000816000905550600101613184565b5090565b5b80821115613240576000808201600090556001820160006131c2919061326b565b6002820160006131d2919061326b565b6003820160006101000a81549073ffffffffffffffffffffffffffffffffffffffff0219169055600482016000808201600061320e919061326b565b60018201600061321e919061326b565b600282016000808201600061323391906132ab565b50505050506007016131a1565b5090565b604051806060016040528060608152602001606081526020016132656132eb565b81525090565b508054613277906143b6565b6000825580601f1061328957506132a8565b601f0160209004906000526020600020908101906132a79190613183565b5b50565b5080546132b7906143b6565b6000825580601f106132c957506132e8565b601f0160209004906000526020600020908101906132e79190613183565b5b50565b6040518060200160405280606081525090565b6000604051905090565b600080fd5b600080fd5b600080fd5b600080fd5b600080fd5b60008083601f84011261333757613336613312565b5b8235905067ffffffffffffffff81111561335457613353613317565b5b6020830191508360018202830111156133705761336f61331c565b5b9250929050565b6000806020838503121561338e5761338d613308565b5b600083013567ffffffffffffffff8111156133ac576133ab61330d565b5b6133b885828601613321565b92509250509250929050565b6000819050919050565b6133d7816133c4565b82525050565b60006020820190506133f260008301846133ce565b92915050565b600073ffffffffffffffffffffffffffffffffffffffff82169050919050565b6000613423826133f8565b9050919050565b61343381613418565b811461343e57600080fd5b50565b6000813590506134508161342a565b92915050565b600080fd5b6000601f19601f8301169050919050565b7f4e487b7100000000000000000000000000000000000000000000000000000000600052604160045260246000fd5b6134a48261345b565b810181811067ffffffffffffffff821117156134c3576134c261346c565b5b80604052505050565b60006134d66132fe565b90506134e2828261349b565b919050565b600067ffffffffffffffff8211156135025761350161346c565b5b61350b8261345b565b9050602081019050919050565b82818337600083830152505050565b600061353a613535846134e7565b6134cc565b90508281526020810184848401111561355657613555613456565b5b613561848285613518565b509392505050565b600082601f83011261357e5761357d613312565b5b813561358e848260208601613527565b91505092915050565b600080604083850312156135ae576135ad613308565b5b60006135bc85828601613441565b925050602083013567ffffffffffffffff8111156135dd576135dc61330d565b5b6135e985828601613569565b9150509250929050565b600081519050919050565b600082825260208201905092915050565b60005b8381101561362d578082015181840152602081019050613612565b8381111561363c576000848401525b50505050565b600061364d826135f3565b61365781856135fe565b935061366781856020860161360f565b6136708161345b565b840191505092915050565b600060208201905081810360008301526136958184613642565b905092915050565b6136a6816133c4565b81146136b157600080fd5b50565b6000813590506136c38161369d565b92915050565b60008083601f8401126136df576136de613312565b5b8235905067ffffffffffffffff8111156136fc576136fb613317565b5b6020830191508360018202830111156137185761371761331c565b5b9250929050565b60008060008060008060008060008060c08b8d03121561374257613741613308565b5b60006137508d828e016136b4565b9a505060208b013567ffffffffffffffff8111156137715761377061330d565b5b61377d8d828e01613321565b995099505060408b013567ffffffffffffffff8111156137a05761379f61330d565b5b6137ac8d828e01613321565b975097505060606137bf8d828e01613441565b95505060808b013567ffffffffffffffff8111156137e0576137df61330d565b5b6137ec8d828e01613321565b945094505060a08b013567ffffffffffffffff81111561380f5761380e61330d565b5b61381b8d828e016136c9565b92509250509295989b9194979a5092959850565b6000806000806060858703121561384957613848613308565b5b6000613857878288016136b4565b945050602085013567ffffffffffffffff8111156138785761387761330d565b5b61388487828801613321565b93509350506040613897878288016136b4565b91505092959194509250565b600080600080604085870312156138bd576138bc613308565b5b600085013567ffffffffffffffff8111156138db576138da61330d565b5b6138e787828801613321565b9450945050602085013567ffffffffffffffff81111561390a5761390961330d565b5b61391687828801613321565b925092505092959194509250565b6000806000806000806000806080898b03121561394457613943613308565b5b600089013567ffffffffffffffff8111156139625761396161330d565b5b61396e8b828c01613321565b9850985050602089013567ffffffffffffffff8111156139915761399061330d565b5b61399d8b828c01613321565b9650965050604089013567ffffffffffffffff8111156139c0576139bf61330d565b5b6139cc8b828c01613321565b9450945050606089013567ffffffffffffffff8111156139ef576139ee61330d565b5b6139fb8b828c01613321565b92509250509295985092959890939650565b600060208284031215613a2357613a22613308565b5b6000613a31848285016136b4565b91505092915050565b613a4381613418565b82525050565b6000602082019050613a5e6000830184613a3a565b92915050565b6000819050919050565b6000613a89613a84613a7f846133f8565b613a64565b6133f8565b9050919050565b6000613a9b82613a6e565b9050919050565b6000613aad82613a90565b9050919050565b613abd81613aa2565b82525050565b6000602082019050613ad86000830184613ab4565b92915050565b6000806000806000806000806080898b031215613afe57613afd613308565b5b600089013567ffffffffffffffff811115613b1c57613b1b61330d565b5b613b288b828c01613321565b9850985050602089013567ffffffffffffffff811115613b4b57613b4a61330d565b5b613b578b828c01613321565b9650965050604089013567ffffffffffffffff811115613b7a57613b7961330d565b5b613b868b828c01613321565b9450945050606089013567ffffffffffffffff811115613ba957613ba861330d565b5b613bb58b828c016136c9565b92509250509295985092959890939650565b60006060820190508181036000830152613be18186613642565b90508181036020830152613bf58185613642565b90508181036040830152613c098184613642565b9050949350505050565b600080600060408486031215613c2c57613c2b613308565b5b600084013567ffffffffffffffff811115613c4a57613c4961330d565b5b613c5686828701613321565b93509350506020613c69868287016136b4565b9150509250925092565b613c7c816133c4565b82525050565b600082825260208201905092915050565b6000613c9e826135f3565b613ca88185613c82565b9350613cb881856020860161360f565b613cc18161345b565b840191505092915050565b613cd581613418565b82525050565b600081519050919050565b600082825260208201905092915050565b6000613d0282613cdb565b613d0c8185613ce6565b9350613d1c81856020860161360f565b613d258161345b565b840191505092915050565b60006020830160008301518482036000860152613d4d8282613cf7565b9150508091505092915050565b60006060830160008301518482036000860152613d778282613c93565b91505060208301518482036020860152613d918282613c93565b91505060408301518482036040860152613dab8282613d30565b9150508091505092915050565b600060a083016000830151613dd06000860182613c73565b5060208301518482036020860152613de88282613c93565b91505060408301518482036040860152613e028282613c93565b9150506060830151613e176060860182613ccc565b5060808301518482036080860152613e2f8282613d5a565b9150508091505092915050565b60006020820190508181036000830152613e568184613db8565b905092915050565b60008083601f840112613e7457613e73613312565b5b8235905067ffffffffffffffff811115613e9157613e90613317565b5b602083019150836020820283011115613ead57613eac61331c565b5b9250929050565b60008060208385031215613ecb57613eca613308565b5b600083013567ffffffffffffffff811115613ee957613ee861330d565b5b613ef585828601613e5e565b92509250509250929050565b600081519050919050565b600082825260208201905092915050565b6000819050602082019050919050565b60008115159050919050565b613f4281613f2d565b82525050565b600061010083016000830151613f616000860182613c73565b5060208301518482036020860152613f798282613c93565b91505060408301518482036040860152613f938282613c93565b9150506060830151613fa86060860182613ccc565b5060808301518482036080860152613fc08282613c93565b91505060a083015184820360a0860152613fda8282613cf7565b91505060c0830151613fef60c0860182613f39565b5060e083015161400260e0860182613c73565b508091505092915050565b60006140198383613f48565b905092915050565b6000602082019050919050565b600061403982613f01565b6140438185613f0c565b93508360208202850161405585613f1d565b8060005b858110156140915784840389528151614072858261400d565b945061407d83614021565b925060208a01995050600181019050614059565b50829750879550505050505092915050565b600060208201905081810360008301526140bd818461402e565b905092915050565b60008083601f8401126140db576140da613312565b5b8235905067ffffffffffffffff8111156140f8576140f7613317565b5b6020830191508360208202830111156141145761411361331c565b5b9250929050565b60008060006040848603121561413457614133613308565b5b600084013567ffffffffffffffff8111156141525761415161330d565b5b61415e868287016140c5565b93509350506020614171868287016136b4565b9150509250925092565b60006020828403121561419157614190613308565b5b600061419f84828501613441565b91505092915050565b6141b181613f2d565b82525050565b60006020820190506141cc60008301846141a8565b92915050565b60006141dd82613a90565b9050919050565b6141ed816141d2565b82525050565b600060208201905061420860008301846141e4565b92915050565b60006020828403121561422457614223613308565b5b600082013567ffffffffffffffff8111156142425761424161330d565b5b61424e84828501613569565b91505092915050565b6000610100830160008301516142706000860182613c73565b50602083015184820360208601526142888282613c93565b915050604083015184820360408601526142a28282613c93565b91505060608301516142b76060860182613ccc565b50608083015184820360808601526142cf8282613c93565b91505060a083015184820360a08601526142e98282613cf7565b91505060c08301516142fe60c0860182613f39565b5060e083015161431160e0860182613c73565b508091505092915050565b600060208201905081810360008301526143368184614257565b905092915050565b600081905092915050565b6000614355838561433e565b9350614362838584613518565b82840190509392505050565b600061437b828486614349565b91508190509392505050565b7f4e487b7100000000000000000000000000000000000000000000000000000000600052602260045260246000fd5b600060028204905060018216806143ce57607f821691505b602082108114156143e2576143e1614387565b5b50919050565b7f4d756c7469506f72746572733a20706f72746572206e6f74207265676973746560008201527f7265640000000000000000000000000000000000000000000000000000000000602082015250565b60006144446023836135fe565b915061444f826143e8565b604082019050919050565b6000602082019050818103600083015261447381614437565b9050919050565b7f4e487b7100000000000000000000000000000000000000000000000000000000600052601160045260246000fd5b60006144b4826133c4565b91506144bf836133c4565b9250827fffffffffffffffffffffffffffffffffffffffffffffffffffffffffffffffff038211156144f4576144f361447a565b5b828201905092915050565b7f4d756c7469506f7274657243726f7373436861696e3a206964206e6f74206d6160008201527f7463680000000000000000000000000000000000000000000000000000000000602082015250565b600061455b6023836135fe565b9150614566826144ff565b604082019050919050565b6000602082019050818103600083015261458a8161454e565b9050919050565b600061459c826133c4565b91506145a7836133c4565b9250828210156145ba576145b961447a565b5b828203905092915050565b7f4e487b7100000000000000000000000000000000000000000000000000000000600052603260045260246000fd5b7f4d756c7469506f7274657243726f7373436861696e3a206475706c696361746560008201527f20636f6d6d697400000000000000000000000000000000000000000000000000602082015250565b60006146506027836135fe565b915061465b826145f4565b604082019050919050565b6000602082019050818103600083015261467f81614643565b9050919050565b6000614691826133c4565b91507fffffffffffffffffffffffffffffffffffffffffffffffffffffffffffffffff8214156146c4576146c361447a565b5b600182019050919050565b7f56657269667920436f6e7472616374206e6f7420736574000000000000000000600082015250565b60006147056017836135fe565b9150614710826146cf565b602082019050919050565b60006020820190508181036000830152614734816146f8565b9050919050565b600081549050919050565b600082825260208201905092915050565b60008190508160005260206000209050919050565b60008160001c9050919050565b6000819050919050565b60006147966147918361476c565b614779565b9050919050565b60008190508160005260206000209050919050565b600081546147bf816143b6565b6147c98186613c82565b945060018216600081146147e457600181146147f657614829565b60ff1983168652602086019350614829565b6147ff8561479d565b60005b8381101561482157815481890152600182019150602081019050614802565b808801955050505b50505092915050565b600073ffffffffffffffffffffffffffffffffffffffff82169050919050565b60006148656148608361476c565b614832565b9050919050565b60008190508160005260206000209050919050565b6000815461488e816143b6565b6148988186613ce6565b945060018216600081146148b357600181146148c5576148f8565b60ff19831686526020860193506148f8565b6148ce8561486c565b60005b838110156148f0578154818901526001820191506020810190506148d1565b808801955050505b50505092915050565b600060ff82169050919050565b600061492161491c8361476c565b614901565b9050919050565b60006101008301600080840154905061494081614783565b61494d6000870182613c73565b5060018401858303602087015261496483826147b2565b92505060028401858303604087015261497d83826147b2565b9250506003840154905061499081614852565b61499d6060870182613ccc565b506004840185830360808701526149b483826147b2565b9250506005840185830360a08701526149cd8382614881565b925050600684015490506149e08161490e565b6149ed60c0870182613f39565b50600784015490506149fe81614783565b614a0b60e0870182613c73565b50819250505092915050565b60006040830160008084018583036000870152614a348382614928565b92505060088401549050614a4781614852565b614a546020870182613ccc565b50819250505092915050565b6000614a6c8383614a17565b905092915050565b6000600982019050919050565b6000614a8c8261473b565b614a968185614746565b935083602082028501614aa885614757565b8060005b85811015614ae357848403895281614ac48582614a60565b9450614acf83614a74565b925060208a01995050600181019050614aac565b50829750879550505050505092915050565b6000819050919050565b600063ffffffff82169050919050565b6000614b2a614b25614b2084614af5565b613a64565b614aff565b9050919050565b614b3a81614b0f565b82525050565b60006040820190508181036000830152614b5a8185614a81565b9050614b696020830184614b31565b9392505050565b600067ffffffffffffffff821115614b8b57614b8a61346c565b5b602082029050602081019050919050565b600080fd5b600080fd5b600081519050614bb58161369d565b92915050565b6000614bce614bc9846134e7565b6134cc565b905082815260208101848484011115614bea57614be9613456565b5b614bf584828561360f565b509392505050565b600082601f830112614c1257614c11613312565b5b8151614c22848260208601614bbb565b91505092915050565b600081519050614c3a8161342a565b92915050565b600067ffffffffffffffff821115614c5b57614c5a61346c565b5b614c648261345b565b9050602081019050919050565b6000614c84614c7f84614c40565b6134cc565b905082815260208101848484011115614ca057614c9f613456565b5b614cab84828561360f565b509392505050565b600082601f830112614cc857614cc7613312565b5b8151614cd8848260208601614c71565b91505092915050565b614cea81613f2d565b8114614cf557600080fd5b50565b600081519050614d0781614ce1565b92915050565b60006101008284031215614d2457614d23614b9c565b5b614d2f6101006134cc565b90506000614d3f84828501614ba6565b600083015250602082015167ffffffffffffffff811115614d6357614d62614ba1565b5b614d6f84828501614bfd565b602083015250604082015167ffffffffffffffff811115614d9357614d92614ba1565b5b614d9f84828501614bfd565b6040830152506060614db384828501614c2b565b606083015250608082015167ffffffffffffffff811115614dd757614dd6614ba1565b5b614de384828501614bfd565b60808301525060a082015167ffffffffffffffff811115614e0757614e06614ba1565b5b614e1384828501614cb3565b60a08301525060c0614e2784828501614cf8565b60c08301525060e0614e3b84828501614ba6565b60e08301525092915050565b600060408284031215614e5d57614e5c614b9c565b5b614e6760406134cc565b9050600082015167ffffffffffffffff811115614e8757614e86614ba1565b5b614e9384828501614d0d565b6000830152506020614ea784828501614c2b565b60208301525092915050565b6000614ec6614ec184614b70565b6134cc565b90508083825260208201905060208402830185811115614ee957614ee861331c565b5b835b81811015614f3057805167ffffffffffffffff811115614f0e57614f0d613312565b5b808601614f1b8982614e47565b85526020850194505050602081019050614eeb565b5050509392505050565b600082601f830112614f4f57614f4e613312565b5b8151614f5f848260208601614eb3565b91505092915050565b600060208284031215614f7e57614f7d613308565b5b600082015167ffffffffffffffff811115614f9c57614f9b61330d565b5b614fa884828501614f3a565b91505092915050565b7f4f776e61626c653a2063616c6c6572206973206e6f7420746865206f776e6572600082015250565b6000614fe76020836135fe565b9150614ff282614fb1565b602082019050919050565b6000602082019050818103600083015261501681614fda565b9050919050565b600080fd5b600080fd5b600080fd5b600080833560016020038436030381126150495761504861501d565b5b80840192508235915067ffffffffffffffff82111561506b5761506a615022565b5b60208301925060018202360383131561508757615086615027565b5b509250929050565b7f4e487b7100000000000000000000000000000000000000000000000000000000600052603160045260246000fd5b600081905092915050565b600081546150d6816143b6565b6150e081866150be565b945060018216600081146150fb576001811461510c5761513f565b60ff1983168652818601935061513f565b6151158561486c565b60005b8381101561513757815481890152600182019150602081019050615118565b838801955050505b50505092915050565b600061515482846150c9565b915081905092915050565b7f63616c6c2066756e6374696f6e206661696c6564000000000000000000000000600082015250565b60006151956014836135fe565b91506151a08261515f565b602082019050919050565b600060208201905081810360008301526151c481615188565b9050919050565b7f4f776e61626c653a206e6577206f776e657220697320746865207a65726f206160008201527f6464726573730000000000000000000000000000000000000000000000000000602082015250565b60006152276026836135fe565b9150615232826151cb565b604082019050919050565b600060208201905081810360008301526152568161521a565b9050919050565b600061526983856135fe565b9350615276838584613518565b61527f8361345b565b840190509392505050565b600060208201905081810360008301526152a581848661525d565b90509392505050565b6000602082840312156152c4576152c3613308565b5b60006152d284828501614ba6565b91505092915050565b60006152e6826135f3565b6152f0818561433e565b935061530081856020860161360f565b80840191505092915050565b600061531882846152db565b915081905092915050565b7f43726f7373436861696e3a206964206e6f74206d617463680000000000000000600082015250565b60006153596018836135fe565b915061536482615323565b602082019050919050565b600060208201905081810360008301526153888161534c565b905091905056fea2646970667358221220f94958fcd36e4050059fd84ea2030463b63d209ba5c06d9b4a9c8cead187b4a364736f6c634300080a0033",
  "immutableReferences": {},
  "source": "// SPDX-License-Identifier: MIT\npragma solidity >=0.8.0 <0.9.0;\n\nimport \"./CrossChain.sol\";\nimport \"./MultiPorters.sol\";\nimport \"./MessageVerify.sol\";\n\ncontract MultiPorterCrossChain is CrossChain, MultiPorters {\n    mapping(string => cachedReceivedMessage[][]) internal cachedReceivedMessageTable;\n    MessageVerify public verifyContract;\n\n    /**\n     * @dev Sets address of MessageVerify contract.\n     */\n    function setVerifyContract(address _address) external onlyOwner {\n        verifyContract = MessageVerify(_address);\n    }\n\n    /**\n     * @dev See ICrossChain.\n     */\n    function abandonMessage(uint256 _id, string calldata _fromChain, uint256 _errorCode) virtual override external onlyPorter {\n        cachedReceivedMessage[][] storage chainMessage = cachedReceivedMessageTable[_fromChain];\n        require(_id <= chainMessage.length + 1, \"MultiPorterCrossChain: id not match\");\n\n        cachedReceivedMessage[] storage cachedMessages;\n        if (_id == chainMessage.length + 1) {\n            cachedMessages = chainMessage.push();\n        }\n        else {\n            cachedMessages = chainMessage[_id - 1];\n        }\n        // check duplicate commit\n        for (uint i = 0; i < cachedMessages.length; i++) {\n            if (cachedMessages[i].porter == msg.sender) {\n                revert(\"MultiPorterCrossChain: duplicate commit\");\n            }\n        }\n        // add message\n        cachedReceivedMessage storage m = cachedMessages.push();\n        m.message.id = _id;\n        m.message.fromChain = _fromChain;\n        m.message.errorCode = _errorCode;\n        m.porter = msg.sender;\n        \n        // aggregation\n        if (cachedMessages.length == required) {\n            _abandonMessage(_id, _fromChain, _errorCode);\n        }\n    }\n\n    /**\n     * @dev See ICrossChain.\n     */\n    function receiveMessage(uint256 _id, string calldata _fromChain, string calldata _sender, address _to,\n            string calldata _action, bytes calldata _data) virtual override external onlyPorter {\n        cachedReceivedMessage[][] storage chainMessage = cachedReceivedMessageTable[_fromChain];\n        require(_id <= chainMessage.length + 1, \"MultiPorterCrossChain: id not match\");\n\n        cachedReceivedMessage[] storage cachedMessages;\n        if (_id == chainMessage.length + 1) {\n            cachedMessages = chainMessage.push();\n        }\n        else {\n            cachedMessages = chainMessage[_id - 1];\n        }\n        // check duplicate commit\n        for (uint i = 0; i < cachedMessages.length; i++) {\n            if (cachedMessages[i].porter == msg.sender) {\n                revert(\"MultiPorterCrossChain: duplicate commit\");\n            }\n        }\n        // add message\n        cachedReceivedMessage storage m = cachedMessages.push();\n        m.message.id = _id;\n        m.message.fromChain = _fromChain;\n        m.message.sender = _sender;\n        m.message.contractAddress = _to;\n        m.message.action = _action;\n        m.message.data = _data;\n        m.porter = msg.sender;\n        \n        // aggregation\n        if (cachedMessages.length == required) {\n            require(address(verifyContract) != address(0), \"Verify Contract not set\");\n            cachedReceivedMessage[] memory rets = verifyContract.msgVerify(cachedMessages, 100);\n            if (rets.length > 0) {\n                ReceivedMessage memory ret = rets[0].message;\n                _receiveMessage(ret.id, ret.fromChain, ret.sender, ret.contractAddress, ret.action, ret.data);\n            }\n        }\n    }\n\n    function clearCrossChainMessage(string calldata _toChain) external onlyOwner {\n        delete sentMessageTable[_toChain];\n    }\n}",
  "sourcePath": "/home/ubuntu/hthuang/dante-cross-chain/avalanche/contracts/MultiPorterCrossChain.sol",
  "compiler": {
    "name": "solc",
    "version": "0.8.10+commit.fc410830.Emscripten.clang"
  },
  "schemaVersion": "3.4.3",
  "updatedAt": "2022-02-04T10:18:00.960Z",
  "networkType": "ethereum",
  "devdoc": {
    "kind": "dev",
    "methods": {
      "abandonMessage(uint256,string,uint256)": {
        "details": "See ICrossChain."
      },
      "changePortersAndRequirement(address[],uint256)": {
        "details": "Changes porters and requirement."
      },
      "executeMessage(string,uint256)": {
        "details": "See ICrossChain."
      },
      "getReceivedMessage(string,uint256)": {
        "details": "See ICrossChain."
      },
      "getReceivedMessageNumber(string)": {
        "details": "See ICrossChain."
      },
      "getSentMessage(string,uint256)": {
        "details": "See ICrossChain."
      },
      "getSentMessageNumber(string)": {
        "details": "See ICrossChain."
      },
      "owner()": {
        "details": "Returns the address of the current owner."
      },
      "receiveMessage(uint256,string,string,address,string,bytes)": {
        "details": "See ICrossChain."
      },
      "renounceOwnership()": {
        "details": "Leaves the contract without owner. It will not be possible to call `onlyOwner` functions anymore. Can only be called by the current owner. NOTE: Renouncing ownership will leave the contract without an owner, thereby removing any functionality that is only available to the owner."
      },
      "sendMessage(string,string,string,bytes)": {
        "details": "See ICrossChain."
      },
      "setTokenContract(address)": {
        "details": "See ICrossChain."
      },
      "setVerifyContract(address)": {
        "details": "Sets address of MessageVerify contract."
      },
      "transferOwnership(address)": {
        "details": "Transfers ownership of the contract to a new account (`newOwner`). Can only be called by the current owner."
      }
    },
    "version": 1
  },
  "userdoc": {
    "kind": "user",
    "methods": {},
    "version": 1
  }
}